:100000000C9434000C9451000C9451000C94510049
:100010000C943D010C9451000C9451000C9451002F
:100020000C9451000C9451000C9451000C9451000C
:100030000C9451000C9451000C9451000C945100FC
:100040000C9451000C9451000C9451000C945100EC
:100050000C9451000C9451000C9451000C945100DC
:100060000C9451000C94510011241FBECFEFD8E026
:10007000DEBFCDBF11E0A0E0B1E0E4E1F9E002C0F5
:1000800005900D92A830B107D9F721E0A8E0B1E0C2
:1000900001C01D92AB30B207E1F70E94C4010C947D
:1000A00074040C940000CF93DF9300D000D0CDB740
:1000B000DEB71A8219821C821B82809108019091FE
:1000C00009012AE030E0B9010E942B03CB012AE0AC
:1000D00030E0B9010E942B039A8389838091080143
:1000E000909109012AE030E0B9010E942B039C8322
:1000F0008B8389819A81092E000CAA0BBB0B8A3055
:100100009105A105B10508F04BC08A589B4FFC0131
:100110000C943F0389EF90E09093010180930001DC
:1001200046C084EA90E090930101809300013FC0B3
:1001300080EB90E0909301018093000138C089E941
:1001400090E0909301018093000131C082E990E03A
:1001500090930101809300012AC082E090E0909387
:1001600001018093000123C088EF90E0909301018A
:10017000809300011CC080E890E09093010180937F
:10018000000115C080E990E0909301018093000187
:100190000EC080EC90E0909301018093000107C0B5
:1001A00080EC90E0909301018093000100008B812E
:1001B0009C81092E000CAA0BBB0B8A309105A1056E
:1001C000B10508F04BC080589B4FFC010C943F03D5
:1001D00089EF90E0909303018093020146C084EA86
:1001E00090E090930301809302013FC080EB90E088
:1001F000909303018093020138C089E990E09093C5
:1002000003018093020131C082E990E090930301E1
:10021000809302012AC082E090E0909303018093D2
:10022000020123C088EF90E09093030180930201C4
:100230001CC080E890E0909303018093020115C0F8
:1002400080E990E090930301809302010EC080EC5E
:1002500090E0909303018093020107C080EC90E04E
:100260009093030180930201000000000F900F9013
:100270000F900F90DF91CF9108951F920F920FB6BC
:100280000F9211242F933F934F935F936F937F931C
:100290008F939F93AF93BF93EF93FF93CF93DF938E
:1002A000CDB7DEB786E290E0FC01208180910401A9
:1002B00090910501822780930A0186E290E0FC017B
:1002C0008081882F90E090930501809304018091B4
:1002D0000A01803211F5809108019091090183365D
:1002E0009105A4F48091060190910701019771F4A2
:1002F00080910801909109010196909309018093E2
:100300000801109207011092060128C081E090E0D8
:10031000909307018093060121C08091080190917C
:10032000090118161906A4F480910601909107019D
:10033000019771F4809108019091090101979093C0
:10034000090180930801109207011092060106C06E
:1003500081E090E090930701809306010E94530092
:100360000000DF91CF91FF91EF91BF91AF919F91ED
:100370008F917F916F915F914F913F912F910F904E
:100380000FBE0F901F901895CF93DF93CDB7DEB7B8
:10039000C454D1090FB6F894DEBF0FBECDBF87E2BB
:1003A00090E0DC011C9288E290E02FEFFC012083BA
:1003B0008AE290E02FEFDC012C9384E290E021E0D0
:1003C000FC012083F89488E690E022E0DC012C9385
:1003D0008CE690E020E3FC012083789485E290E0B5
:1003E00021E0DC012C9320910001309101018BE28E
:1003F00090E0FC01208380E090E0A8E4B2E48F87E5
:10040000988BA98BBA8B20E030E04AE753E46F85E4
:10041000788989899A890E94DF036DA37EA38FA3BF
:1004200098A78DA19EA1AFA1B8A58B8B9C8BAD8BFE
:10043000BE8B20E030E040E85FE36B897C898D89EA
:100440009E890E94590388232CF481E090E0988FC4
:100450008F8B54C020E03FEF4FE757E46B897C89D6
:100460008D899E890E94DA031816D4F520E030E0C9
:1004700040E251E46F85788989899A890E94DF0377
:1004800069A77AA78BA79CA789A59AA5ABA5BCA5A8
:1004900089A39AA3ABA3BCA369A17AA18BA19CA1B8
:1004A0000E945E036DA77EA78FA798ABADA5BEA5E2
:1004B000B88FAF8B10C089E190E09A8F898F898DBA
:1004C0009A8D0197F1F79A8F898F00008F89988D07
:1004D0000197988F8F8B8F89988D892B61F719C021
:1004E0006B897C898D899E890E945E0369AB7AAB9A
:1004F0008BAB9CABE9A9FAA9F88FEF8B8F89988D0C
:100500009C8F8B8F8B8D9C8D0197F1F79C8F8B8FA0
:10051000000085E290E0DC011C9220910201309104
:1005200003018BE290E0FC01208380E090E0A8E4EE
:10053000B2E489839A83AB83BC8320E030E04AE74E
:1005400053E469817A818B819C810E94DF036DABCA
:100550007EAB8FAB98AF8DA99EA9AFA9B8AD8D83A7
:100560009E83AF83B88720E030E040E85FE36D8191
:100570007E818F8198850E94590388232CF481E025
:1005800090E09A8789875BC020E03FEF4FE757E410
:100590006D817E818F8198850E94DA0318160CF098
:1005A0003CC020E030E040E251E469817A818B81F7
:1005B0009C810E94DF0369AF7AAF8BAF9CAF89AD9E
:1005C0009AADABADBCAD8D8F9E8FAF8FB8A36D8D47
:1005D0007E8D8F8D98A10E945E0321966CAF7DAFBA
:1005E0008EAF9FAF2197ADADBEADBA87A98710C0C2
:1005F00089E190E09C878B878B859C850197F1F73B
:100600009C878B87000089859A8501979A878987BF
:1006100089859A85892B61F71DC06D817E818F81C7
:1006200098850E945E0325966CAF7DAF8EAF9FAF1D
:1006300025972396EEADFFAD2397FA87E987898545
:100640009A859E878D878D859E850197F1F79E8778
:100650008D870000C3CE97FB072E16F4009407D0B9
:1006600077FD09D00E94450307FC05D03EF4909524
:1006700081959F4F0895709561957F4F0895EE0F76
:10068000FF1F0590F491E02D0994AA1BBB1B51E1BB
:1006900007C0AA1FBB1FA617B70710F0A61BB70BF2
:1006A000881F991F5A95A9F780959095BC01CD0197
:1006B00008950E948D0308F481E008950E94B90313
:1006C00088F09F5798F0B92F9927B751B0F0E1F013
:1006D000660F771F881F991F1AF0BA95C9F714C0C3
:1006E000B13091F00E94D303B1E008950C94D3038C
:1006F000672F782F8827B85F39F0B93FCCF38695FC
:1007000077956795B395D9F73EF490958095709558
:1007100061957F4F8F4F9F4F0895990F0008550F98
:10072000AA0BE0E8FEEF16161706E807F907C0F077
:1007300012161306E407F50798F0621B730B840B7F
:10074000950B39F40A2661F0232B242B252B21F459
:1007500008950A2609F4A140A6958FEF811D811DF9
:10076000089557FD9058440F551F59F05F3F71F0A1
:100770004795880F97FB991F61F09F3F79F0879508
:100780000895121613061406551FF2CF4695F1DF91
:1007900008C0161617061806991FF1CF8695710521
:1007A000610508940895E894BB2766277727CB0155
:1007B00097F908950E948D0308F48FEF08950E9421
:1007C000F2030C9463040E94550438F00E945C0408
:1007D00020F0952311F00C944C040C945204112435
:1007E0000C94D4030E94B10370F3959FC1F3950F4D
:1007F00050E0551F629FF001729FBB27F00DB11DA5
:10080000639FAA27F00DB11DAA1F649F6627B00D34
:10081000A11D661F829F2227B00DA11D621F739F1D
:10082000B00DA11D621F839FA00D611D221F749F2B
:100830003327A00D611D231F849F600D211D822F72
:10084000762F6A2F11249F5750409AF0F1F0882399
:100850004AF0EE0FFF1FBB1F661F771F881F9150C6
:100860005040A9F79E3F510580F00C944C040C9425
:10087000D4035F3FE4F3983ED4F38695779567956C
:10088000B795F795E7959F5FC1F7FE2B880F911DF0
:100890009695879597F9089597F99F6780E870E096
:1008A00060E008959FEF80EC089500240A941616E6
:1008B000170618060906089500240A94121613064E
:1008C000140605060895092E0394000C11F48823DC
:1008D00052F0BB0F40F4BF2B11F460FF04C06F5FF8
:1008E0007F4F8F4F9F4F0895F894FFCFC9008A0024
:1008F000910098009F00A600AD00B400BB00C200AC
:100900002701E800EF00F600FD0004010B011201D1
:0409100019012001A8
:08091400C000C000FF0001005B
:00000001FF
