:100000000C9434000C9451000C9451000C94510049
:100010000C94C4020C9451000C9451000C945100A7
:100020000C9451000C9451000C9451000C9451000C
:100030000C9451000C9451000C9451000C945100FC
:100040000C9451000C9451000C9451000C945100EC
:100050000C9451000C9451000C9451000C945100DC
:100060000C9451000C94510011241FBECFEFD8E026
:10007000DEBFCDBF11E0A0E0B1E0E0ECF9E002C0EE
:1000800005900D92A830B107D9F721E0A8E0B1E0C2
:1000900001C01D92A131B207E1F70E945A030C94EE
:1000A000CC040C940000CF93DF9300D0CDB7DEB723
:1000B0009A83898389819A8118161906ECF48981BB
:1000C0009A8184369105C4F489819A812AE030E0CE
:1000D000B9010E948303CB01909309018093080129
:1000E00089819A812AE030E0B9010E9483039093CC
:1000F0000B0180930A0108C01092090110920801B7
:1001000010920B0110920A0180910801909109014F
:10011000092E000CAA0BBB0B0197A109B10989306C
:100120009105A105B10508F042C082539B4FFC0127
:100130000C94970389E790E090930101809300016C
:100140003DC084E290E0909301018093000136C0AD
:1001500080E390E090930101809300012FC089E13A
:1001600090E0909301018093000128C082E190E02B
:10017000909301018093000121C082E090E0909370
:100180000101809300011AC088E790E0909301017B
:100190008093000113C010920101109200010EC063
:1001A00080E190E0909301018093000107C080E41A
:1001B00090E09093010180930001000080910A017A
:1001C00090910B01092E000CAA0BBB0B0197A10902
:1001D000B10989309105A105B10508F042C08952E5
:1001E0009B4FFC010C94970389E790E090930301E7
:1001F000809302013DC084E290E0909303018093DC
:10020000020136C080E390E09093030180930201E5
:100210002FC089E190E0909303018093020128C0F0
:1002200082E190E0909303018093020121C082E07B
:1002300090E090930301809302011AC088E790E058
:10024000909303018093020113C010920301109256
:1002500002010EC080E190E09093030180930201BF
:1002600007C080E490E090930301809302010000B6
:1002700000000F900F90DF91CF910895CF93DF93FF
:10028000CDB7DEB72091080130910901C901880F6F
:10029000991F880F991F820F931F880F991F9C0128
:1002A00080910A0190910B01820F931FDF91CF91F2
:1002B0000895CF93DF93CDB7DEB7C454D1090FB6FD
:1002C000F894DEBF0FBECDBF80E090E0A8E4B3E4B9
:1002D0008F87988BA98BBA8B20E030E04AE753E4F4
:1002E0006F85788989899A890E9437046DA37EA3D6
:1002F0008FA398A78DA19EA1AFA1B8A58B8B9C8B36
:10030000AD8BBE8B20E030E040E85FE36B897C89F9
:100310008D899E890E94B10388232CF481E090E0AE
:10032000988F8F8B54C020E03FEF4FE757E46B89E5
:100330007C898D899E890E9432041816D4F520E0AC
:1003400030E040E251E46F85788989899A890E947A
:10035000370469A77AA78BA79CA789A59AA5ABA5FF
:10036000BCA589A39AA3ABA3BCA369A17AA18BA1C5
:100370009CA10E94B6036DA77EA78FA798ABADA5E1
:10038000BEA5B88FAF8B10C089E190E09A8F898F9E
:10039000898D9A8D0197F1F79A8F898F00008F8947
:1003A000988D0197988F8F8B8F89988D892B61F706
:1003B00019C06B897C898D899E890E94B60369ABBF
:1003C0007AAB8BAB9CABE9A9FAA9F88FEF8B8F893D
:1003D000988D9C8F8B8F8B8D9C8D0197F1F79C8FC7
:1003E0008B8F000080910C0190910D0101979093EB
:1003F0000D0180930C0120910C0130910D0185E2DB
:1004000090E0DC012C9320910001309101018BE2FE
:1004100090E0FC01208380E090E0A8E4B3E48983CD
:100420009A83AB83BC8320E030E04AE753E46981E0
:100430007A818B819C810E9437046DAB7EAB8FAB40
:1004400098AF8DA99EA9AFA9B8AD8D839E83AF83C8
:10045000B88720E030E040E85FE36D817E818F81E6
:1004600098850E94B10388232CF481E090E09A875C
:1004700089875BC020E03FEF4FE757E46D817E81C5
:100480008F8198850E94320418160CF03CC020E041
:1004900030E040E251E469817A818B819C810E9445
:1004A000370469AF7AAF8BAF9CAF89AD9AADABAD76
:1004B000BCAD8D8F9E8FAF8FB8A36D8D7E8D8F8DD0
:1004C00098A10E94B60321966CAF7DAF8EAF9FAF0F
:1004D0002197ADADBEADBA87A98710C089E190E084
:1004E0009C878B878B859C850197F1F79C878B87F1
:1004F000000089859A8501979A87898789859A85D9
:10050000892B61F71DC06D817E818F8198850E9446
:10051000B60325966CAF7DAF8EAF9FAF2597239620
:10052000EEADFFAD2397FA87E98789859A859E8787
:100530008D878D859E850197F1F79E878D870000B9
:1005400080910C0190910D01019690930D01809383
:100550000C0120910C0130910D0185E290E0DC014D
:100560002C9320910201309103018BE290E0FC0179
:1005700020830000CC5BDF4F0FB6F894DEBF0FBEC8
:10058000CDBFDF91CF9108951F920F920FB60F92BA
:1005900011242F938F939F93EF93FF93CF93DF9328
:1005A000CDB7DEB786E290E0FC01208180910601A4
:1005B0009091070182278093100186E290E0FC0170
:1005C0008081882F90E090930701809306018091AD
:1005D0001001803211F580910E0190910F01833648
:1005E0009105A4F48091040190910501019771F4A3
:1005F00080910E0190910F01019690930F018093CD
:100600000E01109205011092040129C081E090E0D2
:10061000909305018093040122C080910E01909176
:100620000F0118161906A4F4809104019091050198
:10063000019771F480910E0190910F0101979093B1
:100640000F0180930E01109205011092040107C062
:1006500081E090E0909305018093040100C00000C8
:10066000DF91CF91FF91EF919F918F912F910F90FB
:100670000FBE0F901F901895CF93DF93CDB7DEB7C5
:1006800080910E0190910F01DF91CF910895CF934A
:10069000DF93CDB7DEB788E690E022E0FC0120834F
:1006A0008CE690E020E3FC01208378940000DF9149
:1006B000CF910895CF93DF93CDB7DEB784E290E07A
:1006C00021E0FC01208385E290E02FEFFC012083F4
:1006D0008AE290E02FEFFC0120838BE290E0FC01A6
:1006E000108287E290E0FC01108288E290E02FEF18
:1006F000FC0120830E9447030E943C030E94530098
:100700000E945901F9CF97FB072E16F4009407D0E9
:1007100077FD09D00E949D0307FC05D03EF490951B
:1007200081959F4F0895709561957F4F0895EE0FC5
:10073000FF1F0590F491E02D0994AA1BBB1B51E10A
:1007400007C0AA1FBB1FA617B70710F0A61BB70B41
:10075000881F991F5A95A9F780959095BC01CD01E6
:1007600008950E94E50308F481E008950E941104B1
:1007700088F09F5798F0B92F9927B751B0F0E1F062
:10078000660F771F881F991F1AF0BA95C9F714C012
:10079000B13091F00E942B04B1E008950C942B0429
:1007A000672F782F8827B85F39F0B93FCCF386954B
:1007B00077956795B395D9F73EF4909580957095A8
:1007C00061957F4F8F4F9F4F0895990F0008550FE8
:1007D000AA0BE0E8FEEF16161706E807F907C0F0C7
:1007E00012161306E407F50798F0621B730B840BCF
:1007F000950B39F40A2661F0232B242B252B21F4A9
:1008000008950A2609F4A140A6958FEF811D811D48
:10081000089557FD9058440F551F59F05F3F71F0F0
:100820004795880F97FB991F61F09F3F79F0879557
:100830000895121613061406551FF2CF4695F1DFE0
:1008400008C0161617061806991FF1CF8695710570
:10085000610508940895E894BB2766277727CB01A4
:1008600097F908950E94E50308F48FEF08950E9418
:100870004A040C94BB040E94AD0438F00E94B404F6
:1008800020F0952311F00C94A4040C94AA041124D4
:100890000C942C040E94090470F3959FC1F3950FEA
:1008A00050E0551F629FF001729FBB27F00DB11DF4
:1008B000639FAA27F00DB11DAA1F649F6627B00D84
:1008C000A11D661F829F2227B00DA11D621F739F6D
:1008D000B00DA11D621F839FA00D611D221F749F7B
:1008E0003327A00D611D231F849F600D211D822FC2
:1008F000762F6A2F11249F5750409AF0F1F08823E9
:100900004AF0EE0FFF1FBB1F661F771F881F915015
:100910005040A9F79E3F510580F00C94A4040C941C
:100920002C045F3FE4F3983ED4F386957795679562
:10093000B795F795E7959F5FC1F7FE2B880F911D3F
:100940009695879597F9089597F99F6780E870E0E5
:1009500060E008959FEF80EC089500240A94161635
:10096000170618060906089500240A94121613069D
:10097000140605060895092E0394000C11F488232B
:1009800052F0BB0F40F4BF2B11F460FF04C06F5F47
:100990007F4F8F4F9F4F0895F894FFCF9A00A1008B
:1009A000A800AF00B600BD00C400CB00D000F4002A
:1009B000FB0002010901100117011E0125012A0196
:0809C0007F007F000100FF0031
:00000001FF
